:100000000C941B010C9427010C9427010C942701DC
:100010000C9427010C9427010C9427010C942701C0
:100020000C9427010C9427010C9427010C942701B0
:100030000C9427010C9427010C9427010C942701A0
:100040000C9427010C9427010C9427010C94270190
:100050000C9427010C9427010C9427010C94270180
:100060000C9427010C9427010C9427010C94270170
:100070000C9427010C9427010C9427010C94270160
:100080000C9427010C9427010C9427010C94270150
:100090000C9427010C9427010C9427010C94270140
:1000A0000C9427010C9427010C9427010C94270130
:1000B0000C9427010C9427010C9427010C94270120
:1000C0000C9427010C9427010C9427010C94270110
:1000D0000C9427010C9427010C9427010C94270100
:1000E0000C94270112803A0412001713180132B63B
:1000F00019021A7A030A0C003E00703A7135721127
:1001000073F0A20115027A207B107C1E7D357E5A89
:100110007F69807681808288838F849685A386AF6D
:1001200087C488D789E813C0000010000D40141858
:10013000A505AB072495253326E39F78A068A10386
:10014000A6D8A7D8A8F0A990AA9413C5300031006A
:100150000E610F4B16021E07210222912907330B55
:10016000350B371D3871392A3C784D404E206900D7
:1001700074108D4F8E008F009000910096009A00B1
:10018000B084B10CB20EB382B80A430A44F04534CD
:1001900046584728483A59885A885B445C675D4905
:1001A0005E0E6C0A6D556E116F9E6A4001400260D2
:1001B00013C74F80508051005222535E5480589E86
:1001C00041083F00750576E14C0077013D484B0939
:1001D000C960564034113B12A48296009730982093
:1001E00099309A849B299C039D4C9E3F7804790109
:1001F000C8F0790FC8007910C87E790AC880790BD9
:10020000C801790CC80F790DC8207909C880790216
:10021000C8C07903C8407905C8307926FFFF32F697
:100220001713180119021A7A030AFFFF12013D0879
:10023000413D76E1FFFF11241FBECFEFD1E2DEBFCB
:10024000CDBF00E00CBF0E9468010C94EC010C943F
:10025000000094EA9093BC009091BC0097FFFCCF03
:1002600092E49093BB0094E89093BC009091BC0002
:1002700097FFFCCF8093BB0084E88093BC00809103
:10028000BC0087FFFCCF6093BB0084E88093BC0078
:100290008091BC0087FFFCCF84E98093BC008FE98C
:1002A0009FE00197F1F700C000000895CF93DF931E
:1002B000EC0103C00E9429012296FE01849131962F
:1002C0006491982F96239F3FA9F7DF91CF910895CE
:1002D000F894279A8091B6008F798093B60083E4D2
:1002E0008093800089E080938100109289001092B1
:1002F000880081B111B887B18F7C87B98AB18360DA
:100300008AB98091B9008C7F8093B90088E480938A
:10031000B8001092C4001092C5008091C0008260A5
:100320008093C00086E08093C20088E18093C10082
:1003300060E882E10E9429012FEF81EE94E02150D4
:1003400080409040E1F700C0000084EE90E00E9401
:10035000560160E285E10E94290160E08CE00E9484
:1003600029018EE192E00E9456018CE292E00E9407
:10037000560169E181E10E9429018091C00085FF59
:10038000FCCF82E58093C6008091C00085FFFCCF42
:1003900084E48093C6008091C00085FFFCCF89E58E
:1003A0008093C600339BFECF3399FECF20EE31E021
:1003B00040E852E04A99FECF86B199B18F70907FA4
:1003C000892B8093C6004A9BFECF4150510991F77B
:0C03D0002150310969F7E6CFF894FFCF07
:00000001FF
