:100000000C94EC000C94F6000C94F6000C94F600A2
:100010000C94F6000C94F6000C94F6000C94F60088
:100020000C94F6000C94F6000C94F6000C94F60078
:100030000C94F6000C94F6000C94F6000C94F60068
:100040000C94F6000C94F6000C94F6000C94F60058
:100050000C94F6000C94F6000C94F6000C94F60048
:100060000C94F6000C94F60012803A041200171358
:10007000180132B619021A7A030A0C003E00703ACF
:100080007135721173F0A20115027A207B107C1E6B
:100090007D357E5A7F69807681808288838F8496C1
:1000A00085A386AF87C488D789E813C000001000F5
:1000B0000D401418A505AB072495253326E39F783A
:1000C000A068A103A6D8A7D8A8F0A990AA9413C5A0
:1000D000300031000E610F4B16021E0721022291E3
:1000E0002907330B350B371D3871392A3C784D40C1
:1000F0004E20690074108D4F8E008F00900091008B
:1001000096009A00B084B10CB20EB382B80A430ACA
:1001100044F0453446584728483A59885A885B4441
:100120005C675D495E0E6C0A6D556E116F9E6A408C
:100130000140026013C74F80508051005222535E2D
:100140005480589E41083F00750576E14C007701C8
:100150003D484B09C960564034113B12A4829600B9
:100160009730982099309A849B299C039D4C9E3F00
:1001700078047901C8F0790FC8007910C87E790A2F
:10018000C880790BC801790CC80F790DC82079098E
:10019000C8807902C8C07903C8407905C83079267B
:1001A000FFFF3E1A722273F21716180432A41902C6
:1001B0001A7A030AFFFF12008C00040040C0146A80
:1001C0004F80508051005222535E54803D80FFFF8B
:1001D000524F570046524D0011241FBECFEFD8E0BA
:1001E000DEBFCDBF0E940E020C9468020C9400008A
:1001F000FF920F931F93CF93DF93CDB7DEB7C05419
:10020000D1400FB6F894DEBF0FBECDBFE4EDF1E0F4
:1002100094918091C00085FFFCCF9093C60080919F
:10022000C00085FFFCCF319684918111F1CF4B9BAB
:10023000FECF4B99FECF08E710E0BE016F5F7F4F06
:100240009E012F5B3F4FAE014F5B5E4F8FEF90E7FC
:10025000E2E081509040E040E1F700C00000E0EDB6
:10026000F1E094918091C00085FFFCCF9093C6008F
:100270008091C00085FFFCCF319684918111F1CF30
:10028000DB01F62E972F4A99FECF86B1E9B18F7028
:10029000E07F8E2B8C934A9BFECF4A99FECF86B18E
:1002A000E9B18F70E07F8E2B11968C9311974A9B4A
:1002B000FECF4A99FECF86B1E9B18F70E07F8E2BD9
:1002C00012968C9312974A9BFECF4A99FECF86B125
:1002D000E9B18F70E07F8E2B13968C9313974A9B16
:1002E000FECF4A99FECF86B1E9B18F70E07F8E2BA9
:1002F00014968C931497EF2DF92F81918093C6005B
:100300004A9BFECF1596E217F30719F0FE2E9F2F9A
:10031000BACF8091C00085FFFCCFF9018081319672
:100320008093C6008091C00085FFFCCFE417F507DD
:10033000A9F70150110909F089CFC05CDE4F0FB653
:10034000F894DEBF0FBECDBFDF91CF911F910F910B
:10035000FF900895259A90E285B1892785B92FEFFE
:1003600031EE84E0215030408040E1F700C00000D1
:10037000F3CF94EA9093BC009091BC0097FFFCCF20
:100380009091B900987F9830A9F592E49093BB00C2
:1003900094E89093BC009091BC0097FFFCCF9091A3
:1003A000B900987F983131F58093BB0084E8809341
:1003B000BC008091BC0087FFFCCF8091B900887F92
:1003C0008832C1F46093BB0084E88093BC008091C4
:1003D000BC0087FFFCCF8091B900887F883251F440
:1003E00084E98093BC008FE99FE00197F1F700C09A
:1003F000000008950E94AA01CF93DF93EC0103C08F
:100400000E94B9012296FE01849131966491982F41
:1004100096239F3FA9F7DF91CF910895F894239AEF
:100420008091B6008F798093B60083E48093B0000A
:1004300089E08093B1001092B30087B1807F87B9C3
:100440008AB183708AB92FEF8BE792E921508040FF
:100450009040E1F700C000008091B9008C7F80934C
:10046000B90088E48093B8001092C5001092C400CF
:100470001092C50088E18093C10086E08093C2009D
:1004800060E882E10E94B9012FEF81EE94E02150F3
:1004900080409040E1F700C0000088E690E00E94B4
:1004A000FC0160E285E10E94B90164E08CE00E94F9
:1004B000B90182EA91E00E94FC0186EB91E00E9482
:1004C000FC0163E081E10E94B9010E94F800FDCFC8
:0404D000F894FFCFCE
:00000001FF
