:100000000C9472000C948B000C948B000C948B005D
:100010000C948B000C948B000C948B000C948B0034
:100020000C948B000C948B000C948B000C948B0024
:100030000C948B000C948B000C948B000C948B0014
:100040000C948B000C948B000C948B000C948B0004
:100050000C948B000C948B000C948B000C948B00F4
:100060000C948B000C948B000C948B000C948B00E4
:100070000C948B000C948B000C948B000C948B00D4
:100080000C948B000C948B000C948B000C948B00C4
:100090000C948B000C948B000C948B000C948B00B4
:1000A0000C948B000C948B000C948B000C948B00A4
:1000B0000C948B000C948B000C948B000C948B0094
:1000C0000C948B000C948B000C948B000C948B0084
:1000D0000C948B000C948B000C948B000C948B0074
:1000E0000C948B0011241FBECFEFD1E2DEBFCDBF39
:1000F00000E00CBF12E0A0E0B2E0EEE9F1E000E0C9
:100100000BBF02C007900D92AE30B107D9F70E9425
:100110008D000C94CD000C940000CDB7DEB72D9768
:100120000FB6F894DEBF0FBECDBF1092C50080E1C0
:100130008093C4008091C00082608093C00086E0FC
:100140008093C20088E18093C10046E050E09E01A8
:10015000225F3F4F8DE0E0E0F2E0DE01119601907A
:100160000D928A95E1F7FE01329698E48091C000E5
:1001700085FFFCCF9093C600E217F30711F0919131
:10018000F5CF4150510931F790E080E02D960FB640
:0E019000F894DEBF0FBECDBF0895F894FFCFE8
:0E019E0048656C6C6F20576F726C640A00002D
:00000001FF
