:100000000C9426010C9432010C9432010C943201B0
:100010000C9432010C9432010C9432010C94320194
:100020000C9432010C9432010C9432010C94320184
:100030000C9432010C9432010C9432010C94320174
:100040000C9432010C9432010C9432010C94320164
:100050000C9432010C9432010C9432010C94320154
:100060000C9432010C9432010C9432010C94320144
:100070000C9432010C9432010C9432010C94320134
:100080000C9432010C9432010C9432010C94320124
:100090000C9432010C9432010C9432010C94320114
:1000A0000C9432010C9432010C9432010C94320104
:1000B0000C9432010C9432010C9432010C943201F4
:1000C0000C9432010C9432010C9432010C943201E4
:1000D0000C9432010C9432010C9432010C943201D4
:1000E0000C94320112803A0412001713180132B630
:1000F00019021A7A030A0C003E00703A7135721127
:1001000073F0A20115027A207B107C1E7D357E5A89
:100110007F69807681808288838F849685A386AF6D
:1001200087C488D789E813C0000010000D40141858
:10013000A505AB072495253326E39F78A068A10386
:10014000A6D8A7D8A8F0A990AA9413C5300031006A
:100150000E610F4B16021E07210222912907330B55
:10016000350B371D3871392A3C784D404E206900D7
:1001700074108D4F8E008F009000910096009A00B1
:10018000B084B10CB20EB382B80A430A44F04534CD
:1001900046584728483A59885A885B445C675D4905
:1001A0005E0E6C0A6D556E116F9E6A4001400260D2
:1001B00013C74F80508051005222535E5480589E86
:1001C00041083F00750576E14C0077013D484B0939
:1001D000C960564034113B12A48296009730982093
:1001E00099309A849B299C039D4C9E3F7804790109
:1001F000C8F0790FC8007910C87E790AC880790BD9
:10020000C801790CC80F790DC8207909C880790216
:10021000C8C07903C8407905C8307926FFFF3E1A67
:10022000722273F21716180432A419021A7A030AFA
:10023000FFFF12008C00040040C0146A4F80508001
:1002400051005222535E54803D40FFFF11241FBED7
:10025000CFEFD1E2DEBFCDBF00E00CBF0E94F601C0
:100260000C9458020C940000DF92EF92FF920F93CF
:100270001F93CF93DF93CDB7DEB7C054D1400FB6F5
:10028000F894DEBF0FBECDBF339BFECF3399FECFB8
:1002900088E7E82EF12CAE014F5B5F4FBE016F5B2C
:1002A0007E4F8E010F5F1F4F92E5D92E8091C000C7
:1002B00085FFFCCFD092C600D801902F812F3299B4
:1002C000FECF20B12C93329BFECF3299FECF20B1CE
:1002D00011962C931197329BFECF3299FECF20B10D
:1002E00012962C931297329BFECF3299FECF20B1FB
:1002F00013962C931397329BFECF3299FECF20B1E9
:1003000014962C931497E92FF82F81918093C600AF
:10031000329BFECF1596E417F50719F09E2F8F2F0D
:10032000CECF8091C00085FFFCCF9A01F90180817A
:100330002F5F3F4F8093C6008091C00085FFFCCFA8
:100340002617370799F781E0E81AF10809F0AECFD0
:10035000C05CDE4F0FB6F894DEBF0FBECDBFDF919D
:10036000CF911F910F91FF90EF90DF90089594EA45
:100370009093BC009091BC0097FFFCCF92E49093C7
:10038000BB0094E89093BC009091BC0097FFFCCF19
:100390008093BB0084E88093BC008091BC0087FF01
:1003A000FCCF6093BB0084E88093BC008091BC00CC
:1003B00087FFFCCF84E98093BC008FE99FE0019721
:1003C000F1F700C000000895CF93DF93EC0103C064
:1003D0000E94B7012296FE01849131966491982F74
:1003E00096239F3FA9F7DF91CF910895F894279A1C
:1003F0008091B6008F798093B60083E4809380006B
:1004000089E080938100109289001092880081B168
:1004100011B887B18F7C87B98AB183608AB92FEF11
:100420008BE792E9215080409040E1F700C0000046
:100430008091B9008C7F8093B90088E48093B800E4
:1004400088E08093C4001092C5008091C000826053
:100450008093C00086E08093C20088E18093C10051
:1004600060E882E10E94B7012FEF81EE94E0215015
:1004700080409040E1F700C0000084EE90E00E94D0
:10048000E40160E285E10E94B70164E08CE00E9433
:10049000B7018EE192E00E94E40182E392E00E94C3
:1004A000E4016AE081E10E94B7010E943401FDCFBE
:0404B000F894FFCFEE
:00000001FF
